S00E00007461736B20322E7372656311
S11300000C942A000C9434000C9434000C943400A6
S11300100C9434000C9434000C9434000C9434008C
S11300200C9434000C9434000C9434000C9434007C
S11300300C9434000C9434000C9434000C9434006C
S11300400C9434000C9434000C9434000C9434005C
S11300500C94340011241FBECFE5D8E0DEBFCDBF21
S11300600E9436000C9457000C9400008FEF8ABB5A
S113007084B38E7F84BB85B3816085BB9899FECFA2
S11300804BB381E090E0022E02C0880F991F0A94BE
S1130090E2F7842B8BBB4FE78AE196E04150804026
S11300A09040E1F700C000002F5F3F4FE7CFF89486
S10500B0FFCF7C
S9030000FC
